:100000000C94FE000C9410010C9410010C9410013F
:100010000C9410010C9410010C9410010C9410011C
:100020000C9410010C9410010C9410010C9410010C
:100030000C9410010C9410010C9410010C941001FC
:100040000C9410010C9410010C9410010C941001EC
:100050000C9410010C9410010C9410010C941001DC
:100060000C9410010C9410010C9410010C941001CC
:100070000C9410010C9410010C9410010C941001BC
:100080000C9410010C9410010C9410010C941001AC
:100090000C9410010C9410010C9410010C9410019C
:1000A0000C9410010C9410010C9410010C9410018C
:1000B0000C9410010C9410010C9410010C9410017C
:1000C0000C9410010C9410010C9410010C9410016C
:1000D0000C9410010C9410010C9410010C9410015C
:1000E0000C9410010C9410010C9410010C9410014C
:1000F0000C9410010C9410010C9410010C9410013C
:100100000C9410010C9410010C9410010C9410012B
:100110000C9410010C9410010C9410010C9410011B
:100120000C9410010C9410010C9410010C9410010B
:100130000C9410010C9410010C9410010C941001FB
:100140000C9410010C9410010C9410010C941001EB
:100150000C9410010C9410010C9410010C941001DB
:100160000C9410010C9410010C9410010C941001CB
:100170000C9410010C9410010C9410010C941001BB
:100180000C9410010C9410010C9410010C941001AB
:100190000C9410010C9410010C9410010C9410019B
:1001A0000C9410010C9410010C9410010C9410018B
:1001B0000C9410010C9410010C9410010C9410017B
:1001C0000C9410010C9410010C9410010C9410016B
:1001D0000C9410010C9410010C9410010C9410015B
:1001E0000C9410010C9410010C9410010C9410014B
:1001F0000C9410010C9410010C94100111241FBEDA
:10020000CFEFCDBFD7E2DEBF20E2A0E0B0E201C079
:100210001D92A930B207E1F70E9450020C949F0290
:100220000C94000081E08093450683ED90E30197F4
:10023000F1F700C00000089581E08093460683ED49
:1002400090E30197F1F700C000000895E0E0F6E0C8
:100250008FEF8183148281E0809341060E941C010C
:100260000895809304060E9412010E941C010895C3
:10027000AF92CF92EF920F93A12CC12CE12C00E012
:1002800020E040E456E060EC78E080E090E20E94FC
:1002900017020F91EF90CF90AF900895E0E8F6E04D
:1002A00088E0818398E3948B85830E9438010895C8
:1002B0001F93CF93DF93682F606CC0E8D6E018E0FF
:1002C0001E8380E090E20E94430260E080E090E2C2
:1002D0000E944302E9EFF0E03197F1F700C000001F
:1002E0001D83DF91CF911F9108950F931F93CF939B
:1002F000DF93062F682F6064C0E8D6E018E01E8305
:1003000080E090E20E944302602F80E090E20E9431
:10031000430289EF90E00197F1F700C000001D83D0
:10032000DF91CF911F910F9108950E94750108955B
:1003300061E080E10E94750160E484E20E94750141
:1003400060E08BE10E94750160E88DE00E9475011C
:100350000895CF93C82F80E10E945801807F682FB5
:100360006C2B80E10E947501CF910895CF93C82F27
:1003700061E080E20E94750181E20E9458018F7362
:1003800090E4C99F90011124682F622B81E20E94A2
:100390007501CF910895CF93C82F60E080E20E944D
:1003A000750181E20E9458018F7390E4C99F90010A
:1003B0001124682F622B81E20E947501CF9108956C
:1003C000CF93C82F81E00E94A9018CE10E945801BF
:1003D0006C2F8CE10E947501CF910895CF93C82FA7
:1003E0008093072081E00E94A90185E10E945801C5
:1003F000877090E1C99F900111242077622F682BAC
:1004000085E10E947501CF910895CF93C82F809305
:10041000082081E00E94A90185E10E9458018077AF
:100420006C2F682B85E10E947501CF910895AF92E2
:10043000CF92EF920F93FC016083718342835383C9
:100440001482CC2011F090E801C090E09A299064C9
:10045000222311F080E201C080E0A82EA92A0A29F7
:100460000061DB010C93A081B1811196EC921582A1
:1004700016820280F381E02D80EA81830F91EF9054
:10048000CF90AF900895DC01ED91FC9111976383BB
:10049000ED91FC91119792819923D4F7838108956E
:1004A0000E9426010E944E016FEF8BE10E94950190
:1004B0000E9498016FEF8BE10E94950181E00E94FC
:1004C000A9016FEF8BE10E94950182E00E94B601C5
:1004D00082E00E94CB0184E00E94E00180E00E9463
:1004E000EE0184E00E94050285E00E94A901C0E8B7
:1004F000D6E018E01E8364EC80E090E20E944302A4
:1005000060E080E090E20E944302082F60E080E01B
:1005100090E20E944302E9EFF0E03197F1F700C06A
:1005200000001D8390E0982F8827802B929582955C
:100530008F7089279F7089270E943101D8CFF89446
:02054000FFCFEB
:00000001FF
