:100000000C94FE000C9410010C9410010C9410013F
:100010000C9410010C9410010C9410010C9410011C
:100020000C9410010C9410010C9410010C9410010C
:100030000C9410010C9410010C9410010C941001FC
:100040000C9410010C9410010C9410010C941001EC
:100050000C9410010C9410010C9410010C941001DC
:100060000C9410010C9410010C9410010C941001CC
:100070000C9410010C9410010C9410010C941001BC
:100080000C9410010C9410010C9410010C941001AC
:100090000C9410010C9410010C9410010C9410019C
:1000A0000C9410010C9410010C9410010C9410018C
:1000B0000C9410010C9410010C9410010C9410017C
:1000C0000C9410010C9410010C9410010C9410016C
:1000D0000C9410010C9410010C9410010C9410015C
:1000E0000C9410010C9410010C9410010C9410014C
:1000F0000C9410010C9410010C9410010C9410013C
:100100000C9410010C9410010C9410010C9410012B
:100110000C9410010C9410010C9410010C9410011B
:100120000C9410010C9410010C9410010C9410010B
:100130000C9410010C9410010C9410010C941001FB
:100140000C9410010C9410010C9410010C941001EB
:100150000C9410010C9410010C9410010C941001DB
:100160000C9410010C9410010C9410010C941001CB
:100170000C9410010C9410010C9410010C941001BB
:100180000C9410010C9410010C9410010C941001AB
:100190000C9410010C9410010C9410010C9410019B
:1001A0000C9410010C9410010C9410010C9410018B
:1001B0000C9410010C9410010C9410010C9410017B
:1001C0000C9410010C9410010C9410010C9410016B
:1001D0000C9410010C9410010C9410010C9410015B
:1001E0000C9410010C9410010C9410010C9410014B
:1001F0000C9410010C9410010C94100111241FBEDA
:10020000CFEFCDBFD7E2DEBF20E2A0E0B0E201C079
:100210001D92A730B207E1F70E9467020C947A02A0
:100220000C94000081E08093450683ED90E30197F4
:10023000F1F700C00000089581E08093460683ED49
:1002400090E30197F1F700C000000895E0E0F6E0C8
:100250008FEF8183148281E0809341060E941C010C
:100260000895809304060E9412010E941C010895C3
:10027000AF92CF92EF920F93A12CC12CE12C00E012
:1002800020E040E456E060EC78E080E090E20E94FC
:100290004E010F91EF90CF90AF900895AF92CF9213
:1002A000EF920F93FC016083718342835383148226
:1002B000CC2011F090E801C090E09A2990642223AC
:1002C00011F080E201C080E0A82EA92A0A2900616D
:1002D000DB010C93A081B1811196EC9215821682FC
:1002E0000280F381E02D80EA81830F91EF90CF901F
:1002F000AF900895DC01ED91FC9111976383ED912E
:10030000FC91119792819923D4F783810895E0E4B9
:10031000F6E080E1818398E3948B8583E0E8F6E062
:1003200082E08183858384E0818385830E94380114
:100330000895FF920F931F93CF93DF93082FF92E09
:10034000C0E4D6E010E11E8363E080E090E20E940A
:100350007A016F2D80E090E20E947A01602F80E0A8
:1003600090E20E947A0160E080E090E20E947A01CF
:1003700060E080E090E20E947A011D83DF91CF91DE
:100380001F910F91FF900895FF920F931F93CF93AA
:10039000DF93F82E062FC0E4D6E010E11E8361E063
:1003A00080E090E20E947A016F2D80E090E20E944E
:1003B0007A01602F80E090E20E947A011D83DF9134
:1003C000CF911F910F91FF900895FF920F931F936C
:1003D000CF93DF930E94870100E416E0D0E1F8019B
:1003E000D6836FE980E090E20E947A0160E080E0CD
:1003F00090E20E947A0160E080E090E20E947A013F
:10040000F82E60E080E090E20E947A01C82F60E060
:1004100080E090E20E947A01F801D5832C2F30E031
:10042000322F2227282BFFEEFF120AC021323A4A30
:1004300051F460E080EA0E94C40180E090E005C0D1
:1004400081E090E002C081E090E0DF91CF911F91C8
:100450000F91FF9008951F93CF93DF93C0E4D6E0F0
:1004600010E11E8366E080E090E20E947A011D8325
:10047000DF91CF911F910895EF92FF920F931F93F9
:10048000CF93DF93F82EE92E062F0E942B02C0E4B3
:10049000D6E010E11E8362E080E090E20E947A01E3
:1004A0006E2D80E090E20E947A016F2D80E090E254
:1004B0000E947A01602F80E090E20E947A011D8301
:1004C000DF91CF911F910F91FF90EF9008950E94BF
:1004D000260180E00E9431010E94E50169E285E485
:1004E00090E00E943C0285E490E00E9499010E9405
:0804F0003101F9CFF894FFCFB0
:00000001FF
