:10000000FDC0000016C1000014C1000012C10000B4
:1000100010C100000EC100000CC100000AC10000A8
:1000200008C1000006C1000004C1000002C10000B8
:1000300000C10000FEC00000FCC00000FAC00000CB
:10004000F8C00000F6C00000F4C00000F2C00000DC
:10005000F0C00000EEC00000ECC00000EAC00000EC
:10006000E8C00000E6C00000E4C00000E2C00000FC
:10007000E0C00000DEC00000DCC00000DAC000000C
:10008000D8C00000D6C00000D4C00000D2C000001C
:10009000D0C00000CEC00000CCC00000CAC000002C
:1000A000C8C00000C6C00000C4C00000C2C000003C
:1000B000C0C00000BEC00000BCC00000BAC000004C
:1000C000B8C00000B6C00000B4C00000B2C000005C
:1000D000B0C00000AEC00000ACC00000AAC000006C
:1000E000A8C00000A6C00000A4C00000A2C000007C
:1000F000A0C000009EC000009CC000009AC000008C
:1001000098C0000096C0000094C0000092C000009B
:1001100090C000008EC000008CC000008AC00000AB
:1001200088C0000086C0000084C0000082C00000BB
:1001300080C000007EC000007CC000007AC00000CB
:1001400078C0000076C0000074C0000072C00000DB
:1001500070C000006EC000006CC000006AC00000EB
:1001600068C0000066C0000064C0000062C00000FB
:1001700060C000005EC000005CC000005AC000000B
:1001800058C0000056C0000054C0000052C000001B
:1001900050C000004EC000004CC000004AC000002B
:1001A00048C0000046C0000044C0000042C000003B
:1001B00040C000003EC000003CC000003AC000004B
:1001C00038C0000036C0000034C0000032C000005B
:1001D00030C000002EC000002CC000002AC000006B
:1001E00028C0000026C0000024C0000022C000007B
:1001F00020C000001EC000001CC0000011241FBE53
:10020000CFEFCDBFD7E2DEBF11E2A0E0B0E2E0EA7F
:10021000F7E002C005900D92A830B107D9F721E2AE
:10022000A8E0B1E201C01D92AF30B207E1F7DBD127
:10023000B5C2E6CE81E08093450683ED90E3019759
:10024000F1F700C00000089581E08093460683ED39
:1002500090E30197F1F700C000000895E0E0F6E0B8
:100260008FEF8183148281E080934106EDCF089562
:1002700080930406DFDFE8CFAAECB1E092E09C9324
:10028000E82FF0E084911C920895CF938FE2F4DF81
:10029000C82F8EE2F1DF9C2FCF91089581E08093EB
:1002A00002021092010287E0809304021092200261
:1002B000109221028091000281608093000280915F
:1002C00020028068809320028091060280FFFCCF8C
:1002D00081E08093060208958091200280688093D7
:1002E00020028091060280FFFCCF81E080932302F0
:1002F00080912402909125020895E0E6F6E088E0DE
:10030000818384E08283E0EAF9E083E085838CE006
:10031000868317828481806184838481886084835A
:1003200008959091A10995FFFCCF8093A0090895AD
:10033000CF93DF93EC018991811103C0DF91CF91BD
:100340000895EFDFF8CFCF93C82F90E024E0959584
:1003500087952A95E1F78A3050F0895CE2DF8C2F8F
:100360008F708A3030F0895CDCDFCF910895805D3A
:10037000F5CF805DF9CFCF93C82F892FE4DF8C2F85
:10038000E2DFCF910895CF92DF92EF92FF926B015F
:10039000F2DFC601F0DFFF90EF90DF90CF9008957D
:1003A000AF92BF92CF92EF92FF920F931F93B12C17
:1003B000A12CC12CF12CE12C10E000E020E040E465
:1003C00056E060EC78E088E091E20FD01F910F9149
:1003D000FF90EF90CF90BF90AF900895E0E4F6E0EB
:1003E00080E1818388E3848B0895AF92CF92EF926E
:1003F0000F93FC016083718342835383148290E0E6
:10040000C11090E880E0211180E200650A29092BE3
:10041000082BDB010C931196EC921582168280EA70
:10042000FA0181830F91EF90CF90AF900895EF92F2
:100430000F93FC01608371834283538380E4211115
:1004400080E6802BFB018083E18280E4FA018183D6
:100450000F91EF900895EF920F931F93FC0100838B
:100460001183E282638374834583568327831086D6
:1004700011861F910F91EF900895CF93DF93FC01A8
:10048000A581B68118969C911897C081D1818881E9
:1004900084FD09C081E084830580F681E02D90878A
:1004A000DF91CF9108958B8115960D90BC91A02D71
:1004B000A90FB11D8C939F5FA581B68117968C9172
:1004C0001797981760F413960D90BC91A02DA90F63
:1004D000B11D8C91A081B18113968C93DDCF1296C2
:1004E0008C911297CD91DC9111978D8381E01996B3
:1004F0008C93D2CFCF93DF93FC01DB01C581D681F2
:10050000209759F08985882329F18481882329F04F
:10051000C281D3818C8184FF1FC0A583B6831996C5
:100520001C921997148212968C911297CD91DC919E
:1005300011978E8318961C92189713960D90BC9164
:10054000A02D8C910190F081E02D838380E0DF91DC
:10055000CF91089582E0FBCF81E0F9CFDC01ED91EE
:10056000FC916383828187FFFDCF83810895CF93C0
:10057000DF93DC01FB0180E03097E1F015966D938D
:100580007C9316979281C081D181209709F09E8338
:10059000878130E020E01596ED91FC9116972817A1
:1005A00060F0A081B181109711F015969C9380871F
:1005B00081E08187DF91CF910895C381D481C20FFB
:1005C000D31F4881CD91DC9111974B834A8147FF1E
:1005D000FDCF4B810580F681E02DE20FF31F4083B4
:1005E0002F5F3F4FD8CFDCDEF9DE87DEC0E1C0935E
:1005F00046066FE988E091E2B1DF60E088E091E2D1
:10060000ADDF60E088E091E2A9DFD82F60E088E00C
:1006100091E2A4DF082F60E088E091E29FDF102FD5
:10062000082FC093450683E090E282DE8D2F8BDE9B
:100630008FE090E27DDEC8019EDE81E390E278DE0D
:10064000809100208D1307C080910120909102209D
:100650008017910721F081E190E26ADEFFCF84E309
:1006600090E266DE8EE490E263DE2FE78AE196E0B8
:10067000215080409040E1F700C0000086E790E202
:1006800057DE81E060DE81E05EDE8FE890E250DEE2
:1006900082E059DE82E057DE81E390E249DEC093DA
:1006A000460663E188E091E259DF60E088E091E28C
:1006B00055DF61E088E091E251DF61E088E091E29E
:1006C0004DDFC0934506D0E1D09346066FE088E049
:1006D00091E244DF60EC88E091E240DF60E088E096
:1006E00091E23CDFD093450680FDEECFD0934606E5
:1006F00063E088E091E232DF62E088E091E22EDFA1
:1007000062E088E091E22ADF60E088E091E226DFA3
:1007100060E088E091E222DFC82FD093450687E9A8
:1007200090E206DE8C2F0FDE81E390E201DEC73619
:1007300079F488EA90E2FCDD8DE2F3DD2FE38DE0D1
:1007400093E0215080409040E1F700C00000F4CFDA
:10075000C1110FC08DEB90E2EBDD8BE2E2DD2FE308
:100760008DE093E0215080409040E1F700C0000010
:10077000F4CFCA3A79F483ED90E2DADD83E5D1DD96
:100780002FE38DE093E0215080409040E1F700C0DE
:100790000000F4CF8AEE90E2CBDDFFCFF894FFCFDC
:1007A000EF21AA0D0A4465766963652049443A2021
:1007B000004552524F523A20496E636F7272656320
:1007C0007420466C617368204465766963652049CE
:1007D000440A0D00466C6173682044657669636560
:1007E00020494420436F72726563740A0D0057619B
:1007F0006974696E672031207365636F6E6420626F
:1008000065666F72652072656164696E6720666CEB
:100810006173680A0D0052656164696E6720666CD9
:1008200061736820617420706167652030780020F2
:10083000636F6C2030780052656164206B657920AD
:1008400076616C75653A2000456E746572696E67F5
:100850002055534552206D6F64650A0D00456E7436
:100860006572696E672041444D494E206D6F646525
:100870000A0D00456E746572696E672053454352D8
:100880004554206D6F64650A0D00556E6B6E6F7771
:100890006E206B65792C20616363657373206465DA
:0808A0006E6965640A0D000099
:00000001FF
